{
  "_format": "hh-sol-artifact-1",
  "contractName": "MyEpicNFT",
  "sourceName": "contracts/MyEpicNFT.sol",
  "abi": [
    {
      "inputs": [
        {
          "internalType": "address",
          "name": "vrfCoordinator",
          "type": "address"
        },
        {
          "internalType": "address",
          "name": "link",
          "type": "address"
        },
        {
          "internalType": "bytes32",
          "name": "keyHash",
          "type": "bytes32"
        },
        {
          "internalType": "uint256",
          "name": "fee",
          "type": "uint256"
        }
      ],
      "stateMutability": "nonpayable",
      "type": "constructor"
    },
    {
      "anonymous": false,
      "inputs": [
        {
          "indexed": true,
          "internalType": "address",
          "name": "owner",
          "type": "address"
        },
        {
          "indexed": true,
          "internalType": "address",
          "name": "approved",
          "type": "address"
        },
        {
          "indexed": true,
          "internalType": "uint256",
          "name": "tokenId",
          "type": "uint256"
        }
      ],
      "name": "Approval",
      "type": "event"
    },
    {
      "anonymous": false,
      "inputs": [
        {
          "indexed": true,
          "internalType": "address",
          "name": "owner",
          "type": "address"
        },
        {
          "indexed": true,
          "internalType": "address",
          "name": "operator",
          "type": "address"
        },
        {
          "indexed": false,
          "internalType": "bool",
          "name": "approved",
          "type": "bool"
        }
      ],
      "name": "ApprovalForAll",
      "type": "event"
    },
    {
      "anonymous": false,
      "inputs": [
        {
          "indexed": false,
          "internalType": "address",
          "name": "sender",
          "type": "address"
        },
        {
          "indexed": false,
          "internalType": "uint256",
          "name": "tokenId",
          "type": "uint256"
        }
      ],
      "name": "NewEpicNFTMinted",
      "type": "event"
    },
    {
      "anonymous": false,
      "inputs": [
        {
          "indexed": true,
          "internalType": "address",
          "name": "previousOwner",
          "type": "address"
        },
        {
          "indexed": true,
          "internalType": "address",
          "name": "newOwner",
          "type": "address"
        }
      ],
      "name": "OwnershipTransferred",
      "type": "event"
    },
    {
      "anonymous": false,
      "inputs": [
        {
          "indexed": true,
          "internalType": "address",
          "name": "from",
          "type": "address"
        },
        {
          "indexed": true,
          "internalType": "address",
          "name": "to",
          "type": "address"
        },
        {
          "indexed": true,
          "internalType": "uint256",
          "name": "tokenId",
          "type": "uint256"
        }
      ],
      "name": "Transfer",
      "type": "event"
    },
    {
      "inputs": [
        {
          "internalType": "address",
          "name": "to",
          "type": "address"
        },
        {
          "internalType": "uint256",
          "name": "tokenId",
          "type": "uint256"
        }
      ],
      "name": "approve",
      "outputs": [],
      "stateMutability": "nonpayable",
      "type": "function"
    },
    {
      "inputs": [
        {
          "internalType": "address",
          "name": "owner",
          "type": "address"
        }
      ],
      "name": "balanceOf",
      "outputs": [
        {
          "internalType": "uint256",
          "name": "",
          "type": "uint256"
        }
      ],
      "stateMutability": "view",
      "type": "function"
    },
    {
      "inputs": [],
      "name": "fee",
      "outputs": [
        {
          "internalType": "uint256",
          "name": "",
          "type": "uint256"
        }
      ],
      "stateMutability": "view",
      "type": "function"
    },
    {
      "inputs": [
        {
          "internalType": "uint256",
          "name": "tokenId",
          "type": "uint256"
        }
      ],
      "name": "getApproved",
      "outputs": [
        {
          "internalType": "address",
          "name": "",
          "type": "address"
        }
      ],
      "stateMutability": "view",
      "type": "function"
    },
    {
      "inputs": [],
      "name": "getRandomNumber",
      "outputs": [
        {
          "internalType": "bytes32",
          "name": "requestId",
          "type": "bytes32"
        }
      ],
      "stateMutability": "nonpayable",
      "type": "function"
    },
    {
      "inputs": [],
      "name": "getRandomResult",
      "outputs": [
        {
          "internalType": "uint256",
          "name": "",
          "type": "uint256"
        }
      ],
      "stateMutability": "view",
      "type": "function"
    },
    {
      "inputs": [
        {
          "internalType": "address",
          "name": "owner",
          "type": "address"
        },
        {
          "internalType": "address",
          "name": "operator",
          "type": "address"
        }
      ],
      "name": "isApprovedForAll",
      "outputs": [
        {
          "internalType": "bool",
          "name": "",
          "type": "bool"
        }
      ],
      "stateMutability": "view",
      "type": "function"
    },
    {
      "inputs": [],
      "name": "keyHash",
      "outputs": [
        {
          "internalType": "bytes32",
          "name": "",
          "type": "bytes32"
        }
      ],
      "stateMutability": "view",
      "type": "function"
    },
    {
      "inputs": [],
      "name": "makeAnEpicNFT",
      "outputs": [],
      "stateMutability": "nonpayable",
      "type": "function"
    },
    {
      "inputs": [],
      "name": "name",
      "outputs": [
        {
          "internalType": "string",
          "name": "",
          "type": "string"
        }
      ],
      "stateMutability": "view",
      "type": "function"
    },
    {
      "inputs": [],
      "name": "owner",
      "outputs": [
        {
          "internalType": "address",
          "name": "",
          "type": "address"
        }
      ],
      "stateMutability": "view",
      "type": "function"
    },
    {
      "inputs": [
        {
          "internalType": "uint256",
          "name": "tokenId",
          "type": "uint256"
        }
      ],
      "name": "ownerOf",
      "outputs": [
        {
          "internalType": "address",
          "name": "",
          "type": "address"
        }
      ],
      "stateMutability": "view",
      "type": "function"
    },
    {
      "inputs": [],
      "name": "pickRandomColor",
      "outputs": [
        {
          "internalType": "string",
          "name": "",
          "type": "string"
        }
      ],
      "stateMutability": "nonpayable",
      "type": "function"
    },
    {
      "inputs": [],
      "name": "pickRandomFirstWord",
      "outputs": [
        {
          "internalType": "string",
          "name": "",
          "type": "string"
        }
      ],
      "stateMutability": "nonpayable",
      "type": "function"
    },
    {
      "inputs": [],
      "name": "pickRandomSecondWord",
      "outputs": [
        {
          "internalType": "string",
          "name": "",
          "type": "string"
        }
      ],
      "stateMutability": "nonpayable",
      "type": "function"
    },
    {
      "inputs": [],
      "name": "pickRandomThirdWord",
      "outputs": [
        {
          "internalType": "string",
          "name": "",
          "type": "string"
        }
      ],
      "stateMutability": "nonpayable",
      "type": "function"
    },
    {
      "inputs": [],
      "name": "randomResult",
      "outputs": [
        {
          "internalType": "uint256",
          "name": "",
          "type": "uint256"
        }
      ],
      "stateMutability": "view",
      "type": "function"
    },
    {
      "inputs": [
        {
          "internalType": "bytes32",
          "name": "requestId",
          "type": "bytes32"
        },
        {
          "internalType": "uint256",
          "name": "randomness",
          "type": "uint256"
        }
      ],
      "name": "rawFulfillRandomness",
      "outputs": [],
      "stateMutability": "nonpayable",
      "type": "function"
    },
    {
      "inputs": [],
      "name": "renounceOwnership",
      "outputs": [],
      "stateMutability": "nonpayable",
      "type": "function"
    },
    {
      "inputs": [
        {
          "internalType": "address",
          "name": "from",
          "type": "address"
        },
        {
          "internalType": "address",
          "name": "to",
          "type": "address"
        },
        {
          "internalType": "uint256",
          "name": "tokenId",
          "type": "uint256"
        }
      ],
      "name": "safeTransferFrom",
      "outputs": [],
      "stateMutability": "nonpayable",
      "type": "function"
    },
    {
      "inputs": [
        {
          "internalType": "address",
          "name": "from",
          "type": "address"
        },
        {
          "internalType": "address",
          "name": "to",
          "type": "address"
        },
        {
          "internalType": "uint256",
          "name": "tokenId",
          "type": "uint256"
        },
        {
          "internalType": "bytes",
          "name": "_data",
          "type": "bytes"
        }
      ],
      "name": "safeTransferFrom",
      "outputs": [],
      "stateMutability": "nonpayable",
      "type": "function"
    },
    {
      "inputs": [
        {
          "internalType": "address",
          "name": "operator",
          "type": "address"
        },
        {
          "internalType": "bool",
          "name": "approved",
          "type": "bool"
        }
      ],
      "name": "setApprovalForAll",
      "outputs": [],
      "stateMutability": "nonpayable",
      "type": "function"
    },
    {
      "inputs": [
        {
          "internalType": "uint256",
          "name": "fee",
          "type": "uint256"
        }
      ],
      "name": "setFee",
      "outputs": [],
      "stateMutability": "nonpayable",
      "type": "function"
    },
    {
      "inputs": [
        {
          "internalType": "bytes32",
          "name": "keyHash",
          "type": "bytes32"
        }
      ],
      "name": "setKeyHash",
      "outputs": [],
      "stateMutability": "nonpayable",
      "type": "function"
    },
    {
      "inputs": [
        {
          "internalType": "bytes4",
          "name": "interfaceId",
          "type": "bytes4"
        }
      ],
      "name": "supportsInterface",
      "outputs": [
        {
          "internalType": "bool",
          "name": "",
          "type": "bool"
        }
      ],
      "stateMutability": "view",
      "type": "function"
    },
    {
      "inputs": [],
      "name": "symbol",
      "outputs": [
        {
          "internalType": "string",
          "name": "",
          "type": "string"
        }
      ],
      "stateMutability": "view",
      "type": "function"
    },
    {
      "inputs": [
        {
          "internalType": "uint256",
          "name": "tokenId",
          "type": "uint256"
        }
      ],
      "name": "tokenURI",
      "outputs": [
        {
          "internalType": "string",
          "name": "",
          "type": "string"
        }
      ],
      "stateMutability": "view",
      "type": "function"
    },
    {
      "inputs": [],
      "name": "tokensMinted",
      "outputs": [
        {
          "internalType": "uint256",
          "name": "",
          "type": "uint256"
        }
      ],
      "stateMutability": "view",
      "type": "function"
    },
    {
      "inputs": [
        {
          "internalType": "address",
          "name": "from",
          "type": "address"
        },
        {
          "internalType": "address",
          "name": "to",
          "type": "address"
        },
        {
          "internalType": "uint256",
          "name": "tokenId",
          "type": "uint256"
        }
      ],
      "name": "transferFrom",
      "outputs": [],
      "stateMutability": "nonpayable",
      "type": "function"
    },
    {
      "inputs": [
        {
          "internalType": "address",
          "name": "newOwner",
          "type": "address"
        }
      ],
      "name": "transferOwnership",
      "outputs": [],
      "stateMutability": "nonpayable",
      "type": "function"
    },
    {
      "inputs": [
        {
          "internalType": "address",
          "name": "to",
          "type": "address"
        },
        {
          "internalType": "uint256",
          "name": "value",
          "type": "uint256"
        }
      ],
      "name": "withdrawLINK",
      "outputs": [],
      "stateMutability": "nonpayable",
      "type": "function"
    }
  ],
  "bytecode": "0x60e0604052603260c09081525060405180610100016040528060d3815260200162005daf60d39139600a90805190602001906200003e929190620010b8565b5060405180608001604052806056815260200162005e8260569139600b908051906020019062000070929190620010b8565b506040518061024001604052806040518060400160405280600581526020017f416e67727900000000000000000000000000000000000000000000000000000081525081526020016040518060400160405280600a81526020017f426577696c64657265640000000000000000000000000000000000000000000081525081526020016040518060400160405280600681526020017f4772756d7079000000000000000000000000000000000000000000000000000081525081526020016040518060400160405280600981526020017f4f626e6f78696f7573000000000000000000000000000000000000000000000081525081526020016040518060400160405280600981526020017f526570756c73697665000000000000000000000000000000000000000000000081525081526020016040518060400160405280600881526020017f476967616e74696300000000000000000000000000000000000000000000000081525081526020016040518060400160405280600581526020017f576974747900000000000000000000000000000000000000000000000000000081525081526020016040518060400160405280600881526020017f44617a7a6c696e6700000000000000000000000000000000000000000000000081525081526020016040518060400160405280600681526020017f436875626279000000000000000000000000000000000000000000000000000081525081526020016040518060400160405280600581526020017f506c756d7000000000000000000000000000000000000000000000000000000081525081526020016040518060400160405280600581526020017f53696c6c7900000000000000000000000000000000000000000000000000000081525081526020016040518060400160405280600781526020017f456c6567616e740000000000000000000000000000000000000000000000000081525081526020016040518060400160405280600481526020017f4c617a790000000000000000000000000000000000000000000000000000000081525081526020016040518060400160405280600a81526020017f4d7973746572696f75730000000000000000000000000000000000000000000081525081526020016040518060400160405280600581526020017f456167657200000000000000000000000000000000000000000000000000000081525081526020016040518060400160405280600881526020017f4d757363756c617200000000000000000000000000000000000000000000000081525081526020016040518060400160405280600b81526020017f4d61676e69666963656e7400000000000000000000000000000000000000000081525081526020016040518060400160405280600781526020017f5363727566667900000000000000000000000000000000000000000000000000815250815250600c906012620004b392919062001149565b506040518061024001604052806040518060400160405280600981526020017f536173717561746368000000000000000000000000000000000000000000000081525081526020016040518060400160405280600481526020017f596574690000000000000000000000000000000000000000000000000000000081525081526020016040518060400160405280600781526020017f426967666f6f740000000000000000000000000000000000000000000000000081525081526020016040518060400160405280600581526020017f487964726100000000000000000000000000000000000000000000000000000081525081526020016040518060400160405280600881526020017f426173696c69736b00000000000000000000000000000000000000000000000081525081526020016040518060400160405280600881526020017f57657265776f6c6600000000000000000000000000000000000000000000000081525081526020016040518060400160405280600781526020017f43656e746175720000000000000000000000000000000000000000000000000081525081526020016040518060400160405280600881526020017f4d696e6f7461757200000000000000000000000000000000000000000000000081525081526020016040518060400160405280600781526020017f4d65726d6169640000000000000000000000000000000000000000000000000081525081526020016040518060400160405280600681526020017f476f72676f6e000000000000000000000000000000000000000000000000000081525081526020016040518060400160405280600681526020017f476f626c696e000000000000000000000000000000000000000000000000000081525081526020016040518060400160405280600681526020017f5a6f6d626965000000000000000000000000000000000000000000000000000081525081526020016040518060400160405280600a81526020017f4c65707265636861756e0000000000000000000000000000000000000000000081525081526020016040518060400160405280600581526020017f476e6f6d6500000000000000000000000000000000000000000000000000000081525081526020016040518060400160405280600481526020017f4f6772650000000000000000000000000000000000000000000000000000000081525081526020016040518060400160405280600781526020017f4379636c6f70730000000000000000000000000000000000000000000000000081525081526020016040518060400160405280600781526020017f42616e736865650000000000000000000000000000000000000000000000000081525081526020016040518060400160405280600681526020017f447261676f6e0000000000000000000000000000000000000000000000000000815250815250600d906012620008f692919062001149565b506040518061018001604052806040518060400160405280600481526020017f436574650000000000000000000000000000000000000000000000000000000081525081526020016040518060400160405280600681526020017f436f6c6f6e79000000000000000000000000000000000000000000000000000081525081526020016040518060400160405280600481526020017f43616d700000000000000000000000000000000000000000000000000000000081525081526020016040518060400160405280600581526020017f537761726d00000000000000000000000000000000000000000000000000000081525081526020016040518060400160405280600481526020017f47616e670000000000000000000000000000000000000000000000000000000081525081526020016040518060400160405280600781526020017f4361726176616e0000000000000000000000000000000000000000000000000081525081526020016040518060400160405280600481526020017f5061636b0000000000000000000000000000000000000000000000000000000081525081526020016040518060400160405280600581526020017f44726f766500000000000000000000000000000000000000000000000000000081525081526020016040518060400160405280600681526020017f5363686f6f6c000000000000000000000000000000000000000000000000000081525081526020016040518060400160405280600681526020017f4c6567696f6e000000000000000000000000000000000000000000000000000081525081526020016040518060400160405280600681526020017f476167676c65000000000000000000000000000000000000000000000000000081525081526020016040518060400160405280600681526020017f4361636b6c650000000000000000000000000000000000000000000000000000815250815250600e90600c62000bd7929190620011b0565b506040518060c001604052806040518060400160405280600381526020017f726564000000000000000000000000000000000000000000000000000000000081525081526020016040518060400160405280600781526020017f233038433241380000000000000000000000000000000000000000000000000081525081526020016040518060400160405280600581526020017f626c61636b00000000000000000000000000000000000000000000000000000081525081526020016040518060400160405280600681526020017f79656c6c6f77000000000000000000000000000000000000000000000000000081525081526020016040518060400160405280600481526020017f626c75650000000000000000000000000000000000000000000000000000000081525081526020016040518060400160405280600581526020017f677265656e000000000000000000000000000000000000000000000000000000815250815250600f90600662000d5592919062001217565b5034801562000d6357600080fd5b5060405162005ed838038062005ed8833981810160405281019062000d89919062001350565b83836040518060400160405280600981526020017f5371756172654e465400000000000000000000000000000000000000000000008152506040518060400160405280600681526020017f5351554152450000000000000000000000000000000000000000000000000000815250816000908051906020019062000e0f929190620010b8565b50806001908051906020019062000e28929190620010b8565b5050508173ffffffffffffffffffffffffffffffffffffffff1660a08173ffffffffffffffffffffffffffffffffffffffff1660601b815250508073ffffffffffffffffffffffffffffffffffffffff1660808173ffffffffffffffffffffffffffffffffffffffff1660601b81525050505062000ebb62000eaf62000f1e60201b60201c565b62000f2660201b60201c565b62000f066040518060400160405280601e81526020017f54686973206973206d79204e465420636f6e74726163742e20576f616821000081525062000fec60201b62001b2f1760201c565b8160108190555080601181905550505050506200157f565b600033905090565b6000600860009054906101000a900473ffffffffffffffffffffffffffffffffffffffff16905081600860006101000a81548173ffffffffffffffffffffffffffffffffffffffff021916908373ffffffffffffffffffffffffffffffffffffffff1602179055508173ffffffffffffffffffffffffffffffffffffffff168173ffffffffffffffffffffffffffffffffffffffff167f8be0079c531659141344cd1fd0a4f28419497f9722a3daafe3b4186f6b6457e060405160405180910390a35050565b6200108c81604051602401620010039190620013fd565b6040516020818303038152906040527f41304fac000000000000000000000000000000000000000000000000000000007bffffffffffffffffffffffffffffffffffffffffffffffffffffffff19166020820180517bffffffffffffffffffffffffffffffffffffffffffffffffffffffff83818316178352505050506200108f60201b60201c565b50565b60008151905060006a636f6e736f6c652e6c6f679050602083016000808483855afa5050505050565b828054620010c690620014bb565b90600052602060002090601f016020900481019282620010ea576000855562001136565b82601f106200110557805160ff191683800117855562001136565b8280016001018555821562001136579182015b828111156200113557825182559160200191906001019062001118565b5b5090506200114591906200127e565b5090565b8280548282559060005260206000209081019282156200119d579160200282015b828111156200119c5782518290805190602001906200118b929190620010b8565b50916020019190600101906200116a565b5b509050620011ac91906200129d565b5090565b82805482825590600052602060002090810192821562001204579160200282015b8281111562001203578251829080519060200190620011f2929190620010b8565b5091602001919060010190620011d1565b5b5090506200121391906200129d565b5090565b8280548282559060005260206000209081019282156200126b579160200282015b828111156200126a57825182908051906020019062001259929190620010b8565b509160200191906001019062001238565b5b5090506200127a91906200129d565b5090565b5b80821115620012995760008160009055506001016200127f565b5090565b5b80821115620012c15760008181620012b79190620012c5565b506001016200129e565b5090565b508054620012d390620014bb565b6000825580601f10620012e7575062001308565b601f0160209004906000526020600020908101906200130791906200127e565b5b50565b6000815190506200131c8162001531565b92915050565b60008151905062001333816200154b565b92915050565b6000815190506200134a8162001565565b92915050565b600080600080608085870312156200136757600080fd5b600062001377878288016200130b565b94505060206200138a878288016200130b565b93505060406200139d8782880162001322565b9250506060620013b08782880162001339565b91505092959194509250565b6000620013c98262001421565b620013d581856200142c565b9350620013e781856020860162001485565b620013f28162001520565b840191505092915050565b60006020820190508181036000830152620014198184620013bc565b905092915050565b600081519050919050565b600082825260208201905092915050565b60006200144a826200145b565b9050919050565b6000819050919050565b600073ffffffffffffffffffffffffffffffffffffffff82169050919050565b6000819050919050565b60005b83811015620014a557808201518184015260208101905062001488565b83811115620014b5576000848401525b50505050565b60006002820490506001821680620014d457607f821691505b60208210811415620014eb57620014ea620014f1565b5b50919050565b7f4e487b7100000000000000000000000000000000000000000000000000000000600052602260045260246000fd5b6000601f19601f8301169050919050565b6200153c816200143d565b81146200154857600080fd5b50565b620015568162001451565b81146200156257600080fd5b50565b62001570816200147b565b81146200157c57600080fd5b50565b60805160601c60a05160601c60c0516147e5620015ca600039600061175c015260008181610c1c01526122f0015260008181610eba0152818161155201526122b401526147e56000f3fe608060405234801561001057600080fd5b50600436106101e55760003560e01c806394985ddd1161010f578063c05fe70b116100a2578063ddca3f4311610071578063ddca3f4314610548578063de9d132f14610566578063e985e9c514610570578063f2fde38b146105a0576101e5565b8063c05fe70b146104be578063c87b56dd146104dc578063dbdff2c11461050c578063dc0b7a2a1461052a576101e5565b806398544710116100de578063985447101461044c578063a22cb46514610468578063a3ed480214610484578063b88d4fde146104a2576101e5565b806394985ddd146103d857806395078e1f146103f457806395d89b4114610412578063983fbab214610430576101e5565b806361728f391161018757806370a082311161015657806370a0823114610362578063715018a6146103925780637390c7861461039c5780638da5cb5b146103ba576101e5565b806361728f39146102da5780636352211e146102f857806369fe0e2d146103285780636de9f32b14610344576101e5565b8063095ea7b3116101c3578063095ea7b31461026857806323b872dd1461028457806342619f66146102a057806342842e0e146102be576101e5565b806301ffc9a7146101ea57806306fdde031461021a578063081812fc14610238575b600080fd5b61020460048036038101906101ff919061311c565b6105bc565b6040516102119190613edd565b60405180910390f35b61022261069e565b60405161022f9190613f81565b60405180910390f35b610252600480360381019061024d919061316e565b610730565b60405161025f9190613e0f565b60405180910390f35b610282600480360381019061027d9190613052565b6107b5565b005b61029e60048036038101906102999190612f4c565b6108cd565b005b6102a861092d565b6040516102b591906142a1565b60405180910390f35b6102d860048036038101906102d39190612f4c565b610933565b005b6102e2610953565b6040516102ef9190613ef8565b60405180910390f35b610312600480360381019061030d919061316e565b61095d565b60405161031f9190613e0f565b60405180910390f35b610342600480360381019061033d919061316e565b610a0f565b005b61034c610a95565b60405161035991906142a1565b60405180910390f35b61037c60048036038101906103779190612ee7565b610aa6565b60405161038991906142a1565b60405180910390f35b61039a610b5e565b005b6103a4610be6565b6040516103b191906142a1565b60405180910390f35b6103c2610bf0565b6040516103cf9190613e0f565b60405180910390f35b6103f260048036038101906103ed91906130e0565b610c1a565b005b6103fc610cb6565b6040516104099190613f81565b60405180910390f35b61041a610daa565b6040516104279190613f81565b60405180910390f35b61044a60048036038101906104459190613052565b610e3c565b005b610466600480360381019061046191906130b7565b610fa8565b005b610482600480360381019061047d9190613016565b61102e565b005b61048c6111af565b6040516104999190613f81565b60405180910390f35b6104bc60048036038101906104b79190612f9b565b6112a3565b005b6104c6611305565b6040516104d39190613f81565b60405180910390f35b6104f660048036038101906104f1919061316e565b6113f9565b6040516105039190613f81565b60405180910390f35b61051461154b565b6040516105219190613ef8565b60405180910390f35b61053261164d565b60405161053f9190613f81565b60405180910390f35b610550611741565b60405161055d91906142a1565b60405180910390f35b61056e61174b565b005b61058a60048036038101906105859190612f10565b6119a3565b6040516105979190613edd565b60405180910390f35b6105ba60048036038101906105b59190612ee7565b611a37565b005b60007f80ac58cd000000000000000000000000000000000000000000000000000000007bffffffffffffffffffffffffffffffffffffffffffffffffffffffff1916827bffffffffffffffffffffffffffffffffffffffffffffffffffffffff1916148061068757507f5b5e139f000000000000000000000000000000000000000000000000000000007bffffffffffffffffffffffffffffffffffffffffffffffffffffffff1916827bffffffffffffffffffffffffffffffffffffffffffffffffffffffff1916145b80610697575061069682611bc8565b5b9050919050565b6060600080546106ad9061454a565b80601f01602080910402602001604051908101604052809291908181526020018280546106d99061454a565b80156107265780601f106106fb57610100808354040283529160200191610726565b820191906000526020600020905b81548152906001019060200180831161070957829003601f168201915b5050505050905090565b600061073b82611c32565b61077a576040517f08c379a0000000000000000000000000000000000000000000000000000000008152600401610771906141c1565b60405180910390fd5b6004600083815260200190815260200160002060009054906101000a900473ffffffffffffffffffffffffffffffffffffffff169050919050565b60006107c08261095d565b90508073ffffffffffffffffffffffffffffffffffffffff168373ffffffffffffffffffffffffffffffffffffffff161415610831576040517f08c379a000000000000000000000000000000000000000000000000000000000815260040161082890614261565b60405180910390fd5b8073ffffffffffffffffffffffffffffffffffffffff16610850611c9e565b73ffffffffffffffffffffffffffffffffffffffff16148061087f575061087e81610879611c9e565b6119a3565b5b6108be576040517f08c379a00000000000000000000000000000000000000000000000000000000081526004016108b590614101565b60405180910390fd5b6108c88383611ca6565b505050565b6108de6108d8611c9e565b82611d5f565b61091d576040517f08c379a000000000000000000000000000000000000000000000000000000000815260040161091490614281565b60405180910390fd5b610928838383611e3d565b505050565b60125481565b61094e838383604051806020016040528060008152506112a3565b505050565b6000601054905090565b6000806002600084815260200190815260200160002060009054906101000a900473ffffffffffffffffffffffffffffffffffffffff169050600073ffffffffffffffffffffffffffffffffffffffff168173ffffffffffffffffffffffffffffffffffffffff161415610a06576040517f08c379a00000000000000000000000000000000000000000000000000000000081526004016109fd90614141565b60405180910390fd5b80915050919050565b610a17611c9e565b73ffffffffffffffffffffffffffffffffffffffff16610a35610bf0565b73ffffffffffffffffffffffffffffffffffffffff1614610a8b576040517f08c379a0000000000000000000000000000000000000000000000000000000008152600401610a82906141e1565b60405180910390fd5b8060118190555050565b6000610aa16009612099565b905090565b60008073ffffffffffffffffffffffffffffffffffffffff168273ffffffffffffffffffffffffffffffffffffffff161415610b17576040517f08c379a0000000000000000000000000000000000000000000000000000000008152600401610b0e90614121565b60405180910390fd5b600360008373ffffffffffffffffffffffffffffffffffffffff1673ffffffffffffffffffffffffffffffffffffffff168152602001908152602001600020549050919050565b610b66611c9e565b73ffffffffffffffffffffffffffffffffffffffff16610b84610bf0565b73ffffffffffffffffffffffffffffffffffffffff1614610bda576040517f08c379a0000000000000000000000000000000000000000000000000000000008152600401610bd1906141e1565b60405180910390fd5b610be460006120a7565b565b6000601254905090565b6000600860009054906101000a900473ffffffffffffffffffffffffffffffffffffffff16905090565b7f000000000000000000000000000000000000000000000000000000000000000073ffffffffffffffffffffffffffffffffffffffff163373ffffffffffffffffffffffffffffffffffffffff1614610ca8576040517f08c379a0000000000000000000000000000000000000000000000000000000008152600401610c9f90614241565b60405180910390fd5b610cb2828261216d565b5050565b60606000610cc2612178565b9050600d8054905081610cd591906145d9565b9050600d8181548110610d11577f4e487b7100000000000000000000000000000000000000000000000000000000600052603260045260246000fd5b906000526020600020018054610d269061454a565b80601f0160208091040260200160405190810160405280929190818152602001828054610d529061454a565b8015610d9f5780601f10610d7457610100808354040283529160200191610d9f565b820191906000526020600020905b815481529060010190602001808311610d8257829003601f168201915b505050505091505090565b606060018054610db99061454a565b80601f0160208091040260200160405190810160405280929190818152602001828054610de59061454a565b8015610e325780601f10610e0757610100808354040283529160200191610e32565b820191906000526020600020905b815481529060010190602001808311610e1557829003601f168201915b5050505050905090565b610e44611c9e565b73ffffffffffffffffffffffffffffffffffffffff16610e62610bf0565b73ffffffffffffffffffffffffffffffffffffffff1614610eb8576040517f08c379a0000000000000000000000000000000000000000000000000000000008152600401610eaf906141e1565b60405180910390fd5b7f000000000000000000000000000000000000000000000000000000000000000073ffffffffffffffffffffffffffffffffffffffff1663a9059cbb83836040518363ffffffff1660e01b8152600401610f13929190613e76565b602060405180830381600087803b158015610f2d57600080fd5b505af1158015610f41573d6000803e3d6000fd5b505050506040513d601f19601f82011682018060405250810190610f65919061308e565b610fa4576040517f08c379a0000000000000000000000000000000000000000000000000000000008152600401610f9b906140e1565b60405180910390fd5b5050565b610fb0611c9e565b73ffffffffffffffffffffffffffffffffffffffff16610fce610bf0565b73ffffffffffffffffffffffffffffffffffffffff1614611024576040517f08c379a000000000000000000000000000000000000000000000000000000000815260040161101b906141e1565b60405180910390fd5b8060108190555050565b611036611c9e565b73ffffffffffffffffffffffffffffffffffffffff168273ffffffffffffffffffffffffffffffffffffffff1614156110a4576040517f08c379a000000000000000000000000000000000000000000000000000000000815260040161109b90614081565b60405180910390fd5b80600560006110b1611c9e565b73ffffffffffffffffffffffffffffffffffffffff1673ffffffffffffffffffffffffffffffffffffffff16815260200190815260200160002060008473ffffffffffffffffffffffffffffffffffffffff1673ffffffffffffffffffffffffffffffffffffffff16815260200190815260200160002060006101000a81548160ff0219169083151502179055508173ffffffffffffffffffffffffffffffffffffffff1661115e611c9e565b73ffffffffffffffffffffffffffffffffffffffff167f17307eab39ab6107e8899845ad3d59bd9653f200f220920489ca2b5937696c31836040516111a39190613edd565b60405180910390a35050565b606060006111bb612178565b9050600c80549050816111ce91906145d9565b9050600c818154811061120a577f4e487b7100000000000000000000000000000000000000000000000000000000600052603260045260246000fd5b90600052602060002001805461121f9061454a565b80601f016020809104026020016040519081016040528092919081815260200182805461124b9061454a565b80156112985780601f1061126d57610100808354040283529160200191611298565b820191906000526020600020905b81548152906001019060200180831161127b57829003601f168201915b505050505091505090565b6112b46112ae611c9e565b83611d5f565b6112f3576040517f08c379a00000000000000000000000000000000000000000000000000000000081526004016112ea90614281565b60405180910390fd5b6112ff84848484612196565b50505050565b60606000611311612178565b9050600e805490508161132491906145d9565b9050600e8181548110611360577f4e487b7100000000000000000000000000000000000000000000000000000000600052603260045260246000fd5b9060005260206000200180546113759061454a565b80601f01602080910402602001604051908101604052809291908181526020018280546113a19061454a565b80156113ee5780601f106113c3576101008083540402835291602001916113ee565b820191906000526020600020905b8154815290600101906020018083116113d157829003601f168201915b505050505091505090565b606061140482611c32565b611443576040517f08c379a000000000000000000000000000000000000000000000000000000000815260040161143a906141a1565b60405180910390fd5b60006006600084815260200190815260200160002080546114639061454a565b80601f016020809104026020016040519081016040528092919081815260200182805461148f9061454a565b80156114dc5780601f106114b1576101008083540402835291602001916114dc565b820191906000526020600020905b8154815290600101906020018083116114bf57829003601f168201915b5050505050905060006114ed6121f2565b9050600081511415611503578192505050611546565b600082511115611538578082604051602001611520929190613d0a565b60405160208183030381529060405292505050611546565b61154184612209565b925050505b919050565b60006011547f000000000000000000000000000000000000000000000000000000000000000073ffffffffffffffffffffffffffffffffffffffff166370a08231306040518263ffffffff1660e01b81526004016115a99190613e0f565b60206040518083038186803b1580156115c157600080fd5b505afa1580156115d5573d6000803e3d6000fd5b505050506040513d601f19601f820116820180604052508101906115f99190613197565b101561163a576040517f08c379a0000000000000000000000000000000000000000000000000000000008152600401611631906140a1565b60405180910390fd5b6116486010546011546122b0565b905090565b60606000611659612178565b9050600f805490508161166c91906145d9565b9050600f81815481106116a8577f4e487b7100000000000000000000000000000000000000000000000000000000600052603260045260246000fd5b9060005260206000200180546116bd9061454a565b80601f01602080910402602001604051908101604052809291908181526020018280546116e99061454a565b80156117365780601f1061170b57610100808354040283529160200191611736565b820191906000526020600020905b81548152906001019060200180831161171957829003601f168201915b505050505091505090565b6000601154905090565b60006117576009612099565b9050807f0000000000000000000000000000000000000000000000000000000000000000116117bb576040517f08c379a00000000000000000000000000000000000000000000000000000000081526004016117b290613fe1565b60405180910390fd5b60006117c56111af565b905060006117d1610cb6565b905060006117dd611305565b905060008383836040516020016117f693929190613d2e565b6040516020818303038152906040529050600061181161164d565b90506000600a82600b8560405160200161182e9493929190613d5f565b604051602081830303815290604052905060006118738461184e84612412565b60405160200161185f929190613da8565b604051602081830303815290604052612412565b90506000816040516020016118889190613ded565b60405160208183030381529060405290506118d76040518060400160405280601581526020017f0a2d2d2d2d2d2d2d2d2d2d2d2d2d2d2d2d2d2d2d2d0000000000000000000000815250611b2f565b6118e083611b2f565b61191e6040518060400160405280601581526020017f2d2d2d2d2d2d2d2d2d2d2d2d2d2d2d2d2d2d2d2d0a0000000000000000000000815250611b2f565b611928338a6125d0565b61193289826125ee565b61193c6009612662565b61195f60405180606001604052806025815260200161474b602591398a33612678565b7febb98688741ffa4c7589bf325de30cf7becb63de567842e1ccdb6cb949fdc82c338a604051611990929190613e76565b60405180910390a1505050505050505050565b6000600560008473ffffffffffffffffffffffffffffffffffffffff1673ffffffffffffffffffffffffffffffffffffffff16815260200190815260200160002060008373ffffffffffffffffffffffffffffffffffffffff1673ffffffffffffffffffffffffffffffffffffffff16815260200190815260200160002060009054906101000a900460ff16905092915050565b611a3f611c9e565b73ffffffffffffffffffffffffffffffffffffffff16611a5d610bf0565b73ffffffffffffffffffffffffffffffffffffffff1614611ab3576040517f08c379a0000000000000000000000000000000000000000000000000000000008152600401611aaa906141e1565b60405180910390fd5b600073ffffffffffffffffffffffffffffffffffffffff168173ffffffffffffffffffffffffffffffffffffffff161415611b23576040517f08c379a0000000000000000000000000000000000000000000000000000000008152600401611b1a90614021565b60405180910390fd5b611b2c816120a7565b50565b611bc581604051602401611b439190613f81565b6040516020818303038152906040527f41304fac000000000000000000000000000000000000000000000000000000007bffffffffffffffffffffffffffffffffffffffffffffffffffffffff19166020820180517bffffffffffffffffffffffffffffffffffffffffffffffffffffffff8381831617835250505050612717565b50565b60007f01ffc9a7000000000000000000000000000000000000000000000000000000007bffffffffffffffffffffffffffffffffffffffffffffffffffffffff1916827bffffffffffffffffffffffffffffffffffffffffffffffffffffffff1916149050919050565b60008073ffffffffffffffffffffffffffffffffffffffff166002600084815260200190815260200160002060009054906101000a900473ffffffffffffffffffffffffffffffffffffffff1673ffffffffffffffffffffffffffffffffffffffff1614159050919050565b600033905090565b816004600083815260200190815260200160002060006101000a81548173ffffffffffffffffffffffffffffffffffffffff021916908373ffffffffffffffffffffffffffffffffffffffff160217905550808273ffffffffffffffffffffffffffffffffffffffff16611d198361095d565b73ffffffffffffffffffffffffffffffffffffffff167f8c5be1e5ebec7d5bd14f71427d1e84f3dd0314c0f7b2291e5b200ac8c7c3b92560405160405180910390a45050565b6000611d6a82611c32565b611da9576040517f08c379a0000000000000000000000000000000000000000000000000000000008152600401611da0906140c1565b60405180910390fd5b6000611db48361095d565b90508073ffffffffffffffffffffffffffffffffffffffff168473ffffffffffffffffffffffffffffffffffffffff161480611e2357508373ffffffffffffffffffffffffffffffffffffffff16611e0b84610730565b73ffffffffffffffffffffffffffffffffffffffff16145b80611e345750611e3381856119a3565b5b91505092915050565b8273ffffffffffffffffffffffffffffffffffffffff16611e5d8261095d565b73ffffffffffffffffffffffffffffffffffffffff1614611eb3576040517f08c379a0000000000000000000000000000000000000000000000000000000008152600401611eaa90614201565b60405180910390fd5b600073ffffffffffffffffffffffffffffffffffffffff168273ffffffffffffffffffffffffffffffffffffffff161415611f23576040517f08c379a0000000000000000000000000000000000000000000000000000000008152600401611f1a90614061565b60405180910390fd5b611f2e838383612740565b611f39600082611ca6565b6001600360008573ffffffffffffffffffffffffffffffffffffffff1673ffffffffffffffffffffffffffffffffffffffff1681526020019081526020016000206000828254611f899190614456565b925050819055506001600360008473ffffffffffffffffffffffffffffffffffffffff1673ffffffffffffffffffffffffffffffffffffffff1681526020019081526020016000206000828254611fe09190614375565b92505081905550816002600083815260200190815260200160002060006101000a81548173ffffffffffffffffffffffffffffffffffffffff021916908373ffffffffffffffffffffffffffffffffffffffff160217905550808273ffffffffffffffffffffffffffffffffffffffff168473ffffffffffffffffffffffffffffffffffffffff167fddf252ad1be2c89b69c2b068fc378daa952ba7f163c4a11628f55a4df523b3ef60405160405180910390a4505050565b600081600001549050919050565b6000600860009054906101000a900473ffffffffffffffffffffffffffffffffffffffff16905081600860006101000a81548173ffffffffffffffffffffffffffffffffffffffff021916908373ffffffffffffffffffffffffffffffffffffffff1602179055508173ffffffffffffffffffffffffffffffffffffffff168173ffffffffffffffffffffffffffffffffffffffff167f8be0079c531659141344cd1fd0a4f28419497f9722a3daafe3b4186f6b6457e060405160405180910390a35050565b806012819055505050565b600061218261154b565b50600061218d610be6565b90508091505090565b6121a1848484611e3d565b6121ad84848484612745565b6121ec576040517f08c379a00000000000000000000000000000000000000000000000000000000081526004016121e390614001565b60405180910390fd5b50505050565b606060405180602001604052806000815250905090565b606061221482611c32565b612253576040517f08c379a000000000000000000000000000000000000000000000000000000000815260040161224a90614221565b60405180910390fd5b600061225d6121f2565b9050600081511161227d57604051806020016040528060008152506122a8565b80612287846128dc565b604051602001612298929190613d0a565b6040516020818303038152906040525b915050919050565b60007f000000000000000000000000000000000000000000000000000000000000000073ffffffffffffffffffffffffffffffffffffffff16634000aea07f000000000000000000000000000000000000000000000000000000000000000084866000604051602001612324929190613f13565b6040516020818303038152906040526040518463ffffffff1660e01b815260040161235193929190613e9f565b602060405180830381600087803b15801561236b57600080fd5b505af115801561237f573d6000803e3d6000fd5b505050506040513d601f19601f820116820180604052508101906123a3919061308e565b5060006123c6846000306007600089815260200190815260200160002054612a89565b9050600160076000868152602001908152602001600020546123e89190614375565b60076000868152602001908152602001600020819055506124098482612ac5565b91505092915050565b6060600082519050600081141561243b57604051806020016040528060008152509150506125cb565b6000600360028361244c9190614375565b61245691906143cb565b600461246291906143fc565b905060006020826124739190614375565b67ffffffffffffffff8111156124b2577f4e487b7100000000000000000000000000000000000000000000000000000000600052604160045260246000fd5b6040519080825280601f01601f1916602001820160405280156124e45781602001600182028036833780820191505090505b5090506000604051806060016040528060408152602001614770604091399050600181016020830160005b868110156125885760038101905062ffffff818a015116603f8160121c168401518060081b905060ff603f83600c1c1686015116810190508060081b905060ff603f8360061c1686015116810190508060081b905060ff603f831686015116810190508060e01b9050808452600484019350505061250f565b5060038606600181146125a257600281146125b2576125bd565b613d3d60f01b60028303526125bd565b603d60f81b60018303525b508484525050819450505050505b919050565b6125ea828260405180602001604052806000815250612af8565b5050565b6125f782611c32565b612636576040517f08c379a000000000000000000000000000000000000000000000000000000000815260040161262d90614161565b60405180910390fd5b8060066000848152602001908152602001600020908051906020019061265d929190612d34565b505050565b6001816000016000828254019250508190555050565b61271283838360405160240161269093929190613fa3565b6040516020818303038152906040527fe3849f79000000000000000000000000000000000000000000000000000000007bffffffffffffffffffffffffffffffffffffffffffffffffffffffff19166020820180517bffffffffffffffffffffffffffffffffffffffffffffffffffffffff8381831617835250505050612717565b505050565b60008151905060006a636f6e736f6c652e6c6f679050602083016000808483855afa5050505050565b505050565b60006127668473ffffffffffffffffffffffffffffffffffffffff16612b53565b156128cf578373ffffffffffffffffffffffffffffffffffffffff1663150b7a0261278f611c9e565b8786866040518563ffffffff1660e01b81526004016127b19493929190613e2a565b602060405180830381600087803b1580156127cb57600080fd5b505af19250505080156127fc57506040513d601f19601f820116820180604052508101906127f99190613145565b60015b61287f573d806000811461282c576040519150601f19603f3d011682016040523d82523d6000602084013e612831565b606091505b50600081511415612877576040517f08c379a000000000000000000000000000000000000000000000000000000000815260040161286e90614001565b60405180910390fd5b805181602001fd5b63150b7a0260e01b7bffffffffffffffffffffffffffffffffffffffffffffffffffffffff1916817bffffffffffffffffffffffffffffffffffffffffffffffffffffffff1916149150506128d4565b600190505b949350505050565b60606000821415612924576040518060400160405280600181526020017f30000000000000000000000000000000000000000000000000000000000000008152509050612a84565b600082905060005b6000821461295657808061293f9061457c565b915050600a8261294f91906143cb565b915061292c565b60008167ffffffffffffffff811115612998577f4e487b7100000000000000000000000000000000000000000000000000000000600052604160045260246000fd5b6040519080825280601f01601f1916602001820160405280156129ca5781602001600182028036833780820191505090505b5090505b60008514612a7d576001826129e39190614456565b9150600a856129f291906145d9565b60306129fe9190614375565b60f81b818381518110612a3a577f4e487b7100000000000000000000000000000000000000000000000000000000600052603260045260246000fd5b60200101907effffffffffffffffffffffffffffffffffffffffffffffffffffffffffffff1916908160001a905350600a85612a7691906143cb565b94506129ce565b8093505050505b919050565b600084848484604051602001612aa29493929190613f3c565b6040516020818303038152906040528051906020012060001c9050949350505050565b60008282604051602001612ada929190613cde565b60405160208183030381529060405280519060200120905092915050565b612b028383612b66565b612b0f6000848484612745565b612b4e576040517f08c379a0000000000000000000000000000000000000000000000000000000008152600401612b4590614001565b60405180910390fd5b505050565b600080823b905060008111915050919050565b600073ffffffffffffffffffffffffffffffffffffffff168273ffffffffffffffffffffffffffffffffffffffff161415612bd6576040517f08c379a0000000000000000000000000000000000000000000000000000000008152600401612bcd90614181565b60405180910390fd5b612bdf81611c32565b15612c1f576040517f08c379a0000000000000000000000000000000000000000000000000000000008152600401612c1690614041565b60405180910390fd5b612c2b60008383612740565b6001600360008473ffffffffffffffffffffffffffffffffffffffff1673ffffffffffffffffffffffffffffffffffffffff1681526020019081526020016000206000828254612c7b9190614375565b92505081905550816002600083815260200190815260200160002060006101000a81548173ffffffffffffffffffffffffffffffffffffffff021916908373ffffffffffffffffffffffffffffffffffffffff160217905550808273ffffffffffffffffffffffffffffffffffffffff16600073ffffffffffffffffffffffffffffffffffffffff167fddf252ad1be2c89b69c2b068fc378daa952ba7f163c4a11628f55a4df523b3ef60405160405180910390a45050565b828054612d409061454a565b90600052602060002090601f016020900481019282612d625760008555612da9565b82601f10612d7b57805160ff1916838001178555612da9565b82800160010185558215612da9579182015b82811115612da8578251825591602001919060010190612d8d565b5b509050612db69190612dba565b5090565b5b80821115612dd3576000816000905550600101612dbb565b5090565b6000612dea612de5846142ed565b6142bc565b905082815260208101848484011115612e0257600080fd5b612e0d848285614508565b509392505050565b600081359050612e24816146d7565b92915050565b600081359050612e39816146ee565b92915050565b600081519050612e4e816146ee565b92915050565b600081359050612e6381614705565b92915050565b600081359050612e788161471c565b92915050565b600081519050612e8d8161471c565b92915050565b600082601f830112612ea457600080fd5b8135612eb4848260208601612dd7565b91505092915050565b600081359050612ecc81614733565b92915050565b600081519050612ee181614733565b92915050565b600060208284031215612ef957600080fd5b6000612f0784828501612e15565b91505092915050565b60008060408385031215612f2357600080fd5b6000612f3185828601612e15565b9250506020612f4285828601612e15565b9150509250929050565b600080600060608486031215612f6157600080fd5b6000612f6f86828701612e15565b9350506020612f8086828701612e15565b9250506040612f9186828701612ebd565b9150509250925092565b60008060008060808587031215612fb157600080fd5b6000612fbf87828801612e15565b9450506020612fd087828801612e15565b9350506040612fe187828801612ebd565b925050606085013567ffffffffffffffff811115612ffe57600080fd5b61300a87828801612e93565b91505092959194509250565b6000806040838503121561302957600080fd5b600061303785828601612e15565b925050602061304885828601612e2a565b9150509250929050565b6000806040838503121561306557600080fd5b600061307385828601612e15565b925050602061308485828601612ebd565b9150509250929050565b6000602082840312156130a057600080fd5b60006130ae84828501612e3f565b91505092915050565b6000602082840312156130c957600080fd5b60006130d784828501612e54565b91505092915050565b600080604083850312156130f357600080fd5b600061310185828601612e54565b925050602061311285828601612ebd565b9150509250929050565b60006020828403121561312e57600080fd5b600061313c84828501612e69565b91505092915050565b60006020828403121561315757600080fd5b600061316584828501612e7e565b91505092915050565b60006020828403121561318057600080fd5b600061318e84828501612ebd565b91505092915050565b6000602082840312156131a957600080fd5b60006131b784828501612ed2565b91505092915050565b6131c98161448a565b82525050565b6131d88161449c565b82525050565b6131e7816144a8565b82525050565b6131fe6131f9826144a8565b6145c5565b82525050565b600061320f82614332565b6132198185614348565b9350613229818560208601614517565b613232816146c6565b840191505092915050565b60006132488261433d565b6132528185614359565b9350613262818560208601614517565b61326b816146c6565b840191505092915050565b60006132818261433d565b61328b818561436a565b935061329b818560208601614517565b80840191505092915050565b600081546132b48161454a565b6132be818661436a565b945060018216600081146132d957600181146132ea5761331d565b60ff1983168652818601935061331d565b6132f38561431d565b60005b83811015613315578154818901526001820191506020810190506132f6565b838801955050505b50505092915050565b6000613333602483614359565b91507f4e6f20746f6b656e73206c65667420696e2074686520636f6c6c656374696f6e60008301527f21203a28000000000000000000000000000000000000000000000000000000006020830152604082019050919050565b6000613399603283614359565b91507f4552433732313a207472616e7366657220746f206e6f6e20455243373231526560008301527f63656976657220696d706c656d656e74657200000000000000000000000000006020830152604082019050919050565b60006133ff602683614359565b91507f4f776e61626c653a206e6577206f776e657220697320746865207a65726f206160008301527f64647265737300000000000000000000000000000000000000000000000000006020830152604082019050919050565b6000613465601c83614359565b91507f4552433732313a20746f6b656e20616c7265616479206d696e746564000000006000830152602082019050919050565b60006134a5602483614359565b91507f4552433732313a207472616e7366657220746f20746865207a65726f2061646460008301527f72657373000000000000000000000000000000000000000000000000000000006020830152604082019050919050565b600061350b601983614359565b91507f4552433732313a20617070726f766520746f2063616c6c6572000000000000006000830152602082019050919050565b600061354b60638361436a565b91507f222c20226465736372697074696f6e223a20224120686967686c79206163636c60008301527f61696d656420636f6c6c656374696f6e206f6620737175617265732e222c202260208301527f696d616765223a2022646174613a696d6167652f7376672b786d6c3b6261736560408301527f36342c00000000000000000000000000000000000000000000000000000000006060830152606382019050919050565b60006135fd602b83614359565b91507f4e6f7420656e6f756768204c494e4b202d2066696c6c20636f6e74726163742060008301527f77697468206661756365740000000000000000000000000000000000000000006020830152604082019050919050565b6000613663602c83614359565b91507f4552433732313a206f70657261746f7220717565727920666f72206e6f6e657860008301527f697374656e7420746f6b656e00000000000000000000000000000000000000006020830152604082019050919050565b60006136c9600d8361436a565b91507f3c2f746578743e3c2f7376673e000000000000000000000000000000000000006000830152600d82019050919050565b6000613709600f83614359565b91507f4e6f7420656e6f756768204c494e4b00000000000000000000000000000000006000830152602082019050919050565b6000613749603883614359565b91507f4552433732313a20617070726f76652063616c6c6572206973206e6f74206f7760008301527f6e6572206e6f7220617070726f76656420666f7220616c6c00000000000000006020830152604082019050919050565b60006137af602a83614359565b91507f4552433732313a2062616c616e636520717565727920666f7220746865207a6560008301527f726f2061646472657373000000000000000000000000000000000000000000006020830152604082019050919050565b6000613815602983614359565b91507f4552433732313a206f776e657220717565727920666f72206e6f6e657869737460008301527f656e7420746f6b656e00000000000000000000000000000000000000000000006020830152604082019050919050565b600061387b602e83614359565b91507f45524337323155524953746f726167653a2055524920736574206f66206e6f6e60008301527f6578697374656e7420746f6b656e0000000000000000000000000000000000006020830152604082019050919050565b60006138e160028361436a565b91507f227d0000000000000000000000000000000000000000000000000000000000006000830152600282019050919050565b6000613921602083614359565b91507f4552433732313a206d696e7420746f20746865207a65726f20616464726573736000830152602082019050919050565b6000613961603183614359565b91507f45524337323155524953746f726167653a2055524920717565727920666f722060008301527f6e6f6e6578697374656e7420746f6b656e0000000000000000000000000000006020830152604082019050919050565b60006139c7602c83614359565b91507f4552433732313a20617070726f76656420717565727920666f72206e6f6e657860008301527f697374656e7420746f6b656e00000000000000000000000000000000000000006020830152604082019050919050565b6000613a2d602083614359565b91507f4f776e61626c653a2063616c6c6572206973206e6f7420746865206f776e65726000830152602082019050919050565b6000613a6d602983614359565b91507f4552433732313a207472616e73666572206f6620746f6b656e2074686174206960008301527f73206e6f74206f776e00000000000000000000000000000000000000000000006020830152604082019050919050565b6000613ad3602f83614359565b91507f4552433732314d657461646174613a2055524920717565727920666f72206e6f60008301527f6e6578697374656e7420746f6b656e00000000000000000000000000000000006020830152604082019050919050565b6000613b39600a8361436a565b91507f7b226e616d65223a2022000000000000000000000000000000000000000000006000830152600a82019050919050565b6000613b79601f83614359565b91507f4f6e6c7920565246436f6f7264696e61746f722063616e2066756c66696c6c006000830152602082019050919050565b6000613bb9602183614359565b91507f4552433732313a20617070726f76616c20746f2063757272656e74206f776e6560008301527f72000000000000000000000000000000000000000000000000000000000000006020830152604082019050919050565b6000613c1f601d8361436a565b91507f646174613a6170706c69636174696f6e2f6a736f6e3b6261736536342c0000006000830152601d82019050919050565b6000613c5f603183614359565b91507f4552433732313a207472616e736665722063616c6c6572206973206e6f74206f60008301527f776e6572206e6f7220617070726f7665640000000000000000000000000000006020830152604082019050919050565b613cc1816144fe565b82525050565b613cd8613cd3826144fe565b6145cf565b82525050565b6000613cea82856131ed565b602082019150613cfa8284613cc7565b6020820191508190509392505050565b6000613d168285613276565b9150613d228284613276565b91508190509392505050565b6000613d3a8286613276565b9150613d468285613276565b9150613d528284613276565b9150819050949350505050565b6000613d6b82876132a7565b9150613d778286613276565b9150613d8382856132a7565b9150613d8f8284613276565b9150613d9a826136bc565b915081905095945050505050565b6000613db382613b2c565b9150613dbf8285613276565b9150613dca8261353e565b9150613dd68284613276565b9150613de1826138d4565b91508190509392505050565b6000613df882613c12565b9150613e048284613276565b915081905092915050565b6000602082019050613e2460008301846131c0565b92915050565b6000608082019050613e3f60008301876131c0565b613e4c60208301866131c0565b613e596040830185613cb8565b8181036060830152613e6b8184613204565b905095945050505050565b6000604082019050613e8b60008301856131c0565b613e986020830184613cb8565b9392505050565b6000606082019050613eb460008301866131c0565b613ec16020830185613cb8565b8181036040830152613ed38184613204565b9050949350505050565b6000602082019050613ef260008301846131cf565b92915050565b6000602082019050613f0d60008301846131de565b92915050565b6000604082019050613f2860008301856131de565b613f356020830184613cb8565b9392505050565b6000608082019050613f5160008301876131de565b613f5e6020830186613cb8565b613f6b60408301856131c0565b613f786060830184613cb8565b95945050505050565b60006020820190508181036000830152613f9b818461323d565b905092915050565b60006060820190508181036000830152613fbd818661323d565b9050613fcc6020830185613cb8565b613fd960408301846131c0565b949350505050565b60006020820190508181036000830152613ffa81613326565b9050919050565b6000602082019050818103600083015261401a8161338c565b9050919050565b6000602082019050818103600083015261403a816133f2565b9050919050565b6000602082019050818103600083015261405a81613458565b9050919050565b6000602082019050818103600083015261407a81613498565b9050919050565b6000602082019050818103600083015261409a816134fe565b9050919050565b600060208201905081810360008301526140ba816135f0565b9050919050565b600060208201905081810360008301526140da81613656565b9050919050565b600060208201905081810360008301526140fa816136fc565b9050919050565b6000602082019050818103600083015261411a8161373c565b9050919050565b6000602082019050818103600083015261413a816137a2565b9050919050565b6000602082019050818103600083015261415a81613808565b9050919050565b6000602082019050818103600083015261417a8161386e565b9050919050565b6000602082019050818103600083015261419a81613914565b9050919050565b600060208201905081810360008301526141ba81613954565b9050919050565b600060208201905081810360008301526141da816139ba565b9050919050565b600060208201905081810360008301526141fa81613a20565b9050919050565b6000602082019050818103600083015261421a81613a60565b9050919050565b6000602082019050818103600083015261423a81613ac6565b9050919050565b6000602082019050818103600083015261425a81613b6c565b9050919050565b6000602082019050818103600083015261427a81613bac565b9050919050565b6000602082019050818103600083015261429a81613c52565b9050919050565b60006020820190506142b66000830184613cb8565b92915050565b6000604051905081810181811067ffffffffffffffff821117156142e3576142e2614697565b5b8060405250919050565b600067ffffffffffffffff82111561430857614307614697565b5b601f19601f8301169050602081019050919050565b60008190508160005260206000209050919050565b600081519050919050565b600081519050919050565b600082825260208201905092915050565b600082825260208201905092915050565b600081905092915050565b6000614380826144fe565b915061438b836144fe565b9250827fffffffffffffffffffffffffffffffffffffffffffffffffffffffffffffffff038211156143c0576143bf61460a565b5b828201905092915050565b60006143d6826144fe565b91506143e1836144fe565b9250826143f1576143f0614639565b5b828204905092915050565b6000614407826144fe565b9150614412836144fe565b9250817fffffffffffffffffffffffffffffffffffffffffffffffffffffffffffffffff048311821515161561444b5761444a61460a565b5b828202905092915050565b6000614461826144fe565b915061446c836144fe565b92508282101561447f5761447e61460a565b5b828203905092915050565b6000614495826144de565b9050919050565b60008115159050919050565b6000819050919050565b60007fffffffff0000000000000000000000000000000000000000000000000000000082169050919050565b600073ffffffffffffffffffffffffffffffffffffffff82169050919050565b6000819050919050565b82818337600083830152505050565b60005b8381101561453557808201518184015260208101905061451a565b83811115614544576000848401525b50505050565b6000600282049050600182168061456257607f821691505b6020821081141561457657614575614668565b5b50919050565b6000614587826144fe565b91507fffffffffffffffffffffffffffffffffffffffffffffffffffffffffffffffff8214156145ba576145b961460a565b5b600182019050919050565b6000819050919050565b6000819050919050565b60006145e4826144fe565b91506145ef836144fe565b9250826145ff576145fe614639565b5b828206905092915050565b7f4e487b7100000000000000000000000000000000000000000000000000000000600052601160045260246000fd5b7f4e487b7100000000000000000000000000000000000000000000000000000000600052601260045260246000fd5b7f4e487b7100000000000000000000000000000000000000000000000000000000600052602260045260246000fd5b7f4e487b7100000000000000000000000000000000000000000000000000000000600052604160045260246000fd5b6000601f19601f8301169050919050565b6146e08161448a565b81146146eb57600080fd5b50565b6146f78161449c565b811461470257600080fd5b50565b61470e816144a8565b811461471957600080fd5b50565b614725816144b2565b811461473057600080fd5b50565b61473c816144fe565b811461474757600080fd5b5056fe416e204e465420772f20494420257320686173206265656e206d696e74656420746f2025734142434445464748494a4b4c4d4e4f505152535455565758595a6162636465666768696a6b6c6d6e6f707172737475767778797a303132333435363738392b2fa264697066735822122061d7d40d01dc08fbc5e8e2ca2eb72338e68a30f86e5e4b85aea75bc0a95fc54764736f6c634300080000333c73766720786d6c6e733d27687474703a2f2f7777772e77332e6f72672f323030302f73766727207072657365727665417370656374526174696f3d27784d696e594d696e206d656574272076696577426f783d273020302033353020333530273e3c7374796c653e2e62617365207b2066696c6c3a2077686974653b20666f6e742d66616d696c793a2073657269663b20666f6e742d73697a653a20323470783b207d3c2f7374796c653e3c726563742077696474683d273130302527206865696768743d2731303025272066696c6c3d27272f3e3c7465787420783d273530252720793d273530252720636c6173733d27626173652720646f6d696e616e742d626173656c696e653d276d6964646c652720746578742d616e63686f723d276d6964646c65273e",
  "linkReferences": {},
  "deployedLinkReferences": {}
}